{
  "address": "0xc1FFBf9aFE4F5a0D6395Cb2c9a6a0B8d9FD561db",
  "abi": [
    {
      "inputs": [
        {
          "internalType": "string",
          "name": "_name",
          "type": "string"
        },
        {
          "internalType": "string",
          "name": "_symbol",
          "type": "string"
        },
        {
          "internalType": "string",
          "name": "_initBaseURI",
          "type": "string"
        },
        {
          "internalType": "address",
          "name": "mintTo",
          "type": "address"
        },
        {
          "internalType": "uint256",
          "name": "numToMint",
          "type": "uint256"
        }
      ],
      "stateMutability": "nonpayable",
      "type": "constructor"
    },
    {
      "anonymous": false,
      "inputs": [
        {
          "indexed": true,
          "internalType": "address",
          "name": "owner",
          "type": "address"
        },
        {
          "indexed": true,
          "internalType": "address",
          "name": "approved",
          "type": "address"
        },
        {
          "indexed": true,
          "internalType": "uint256",
          "name": "tokenId",
          "type": "uint256"
        }
      ],
      "name": "Approval",
      "type": "event"
    },
    {
      "anonymous": false,
      "inputs": [
        {
          "indexed": true,
          "internalType": "address",
          "name": "owner",
          "type": "address"
        },
        {
          "indexed": true,
          "internalType": "address",
          "name": "operator",
          "type": "address"
        },
        {
          "indexed": false,
          "internalType": "bool",
          "name": "approved",
          "type": "bool"
        }
      ],
      "name": "ApprovalForAll",
      "type": "event"
    },
    {
      "anonymous": false,
      "inputs": [
        {
          "indexed": true,
          "internalType": "address",
          "name": "previousOwner",
          "type": "address"
        },
        {
          "indexed": true,
          "internalType": "address",
          "name": "newOwner",
          "type": "address"
        }
      ],
      "name": "OwnershipTransferred",
      "type": "event"
    },
    {
      "anonymous": false,
      "inputs": [
        {
          "indexed": true,
          "internalType": "address",
          "name": "from",
          "type": "address"
        },
        {
          "indexed": true,
          "internalType": "address",
          "name": "to",
          "type": "address"
        },
        {
          "indexed": true,
          "internalType": "uint256",
          "name": "tokenId",
          "type": "uint256"
        }
      ],
      "name": "Transfer",
      "type": "event"
    },
    {
      "inputs": [
        {
          "internalType": "address",
          "name": "to",
          "type": "address"
        },
        {
          "internalType": "uint256",
          "name": "tokenId",
          "type": "uint256"
        }
      ],
      "name": "approve",
      "outputs": [],
      "stateMutability": "nonpayable",
      "type": "function"
    },
    {
      "inputs": [
        {
          "internalType": "address",
          "name": "owner",
          "type": "address"
        }
      ],
      "name": "balanceOf",
      "outputs": [
        {
          "internalType": "uint256",
          "name": "",
          "type": "uint256"
        }
      ],
      "stateMutability": "view",
      "type": "function"
    },
    {
      "inputs": [],
      "name": "baseExtension",
      "outputs": [
        {
          "internalType": "string",
          "name": "",
          "type": "string"
        }
      ],
      "stateMutability": "view",
      "type": "function"
    },
    {
      "inputs": [],
      "name": "baseURI",
      "outputs": [
        {
          "internalType": "string",
          "name": "",
          "type": "string"
        }
      ],
      "stateMutability": "view",
      "type": "function"
    },
    {
      "inputs": [],
      "name": "cost",
      "outputs": [
        {
          "internalType": "uint256",
          "name": "",
          "type": "uint256"
        }
      ],
      "stateMutability": "view",
      "type": "function"
    },
    {
      "inputs": [
        {
          "internalType": "uint256",
          "name": "tokenId",
          "type": "uint256"
        }
      ],
      "name": "getApproved",
      "outputs": [
        {
          "internalType": "address",
          "name": "",
          "type": "address"
        }
      ],
      "stateMutability": "view",
      "type": "function"
    },
    {
      "inputs": [
        {
          "internalType": "address",
          "name": "owner",
          "type": "address"
        },
        {
          "internalType": "address",
          "name": "operator",
          "type": "address"
        }
      ],
      "name": "isApprovedForAll",
      "outputs": [
        {
          "internalType": "bool",
          "name": "",
          "type": "bool"
        }
      ],
      "stateMutability": "view",
      "type": "function"
    },
    {
      "inputs": [],
      "name": "maxMintAmount",
      "outputs": [
        {
          "internalType": "uint256",
          "name": "",
          "type": "uint256"
        }
      ],
      "stateMutability": "view",
      "type": "function"
    },
    {
      "inputs": [],
      "name": "maxSupply",
      "outputs": [
        {
          "internalType": "uint256",
          "name": "",
          "type": "uint256"
        }
      ],
      "stateMutability": "view",
      "type": "function"
    },
    {
      "inputs": [
        {
          "internalType": "address",
          "name": "_to",
          "type": "address"
        },
        {
          "internalType": "uint256",
          "name": "_mintAmount",
          "type": "uint256"
        }
      ],
      "name": "mint",
      "outputs": [],
      "stateMutability": "payable",
      "type": "function"
    },
    {
      "inputs": [],
      "name": "name",
      "outputs": [
        {
          "internalType": "string",
          "name": "",
          "type": "string"
        }
      ],
      "stateMutability": "view",
      "type": "function"
    },
    {
      "inputs": [],
      "name": "owner",
      "outputs": [
        {
          "internalType": "address",
          "name": "",
          "type": "address"
        }
      ],
      "stateMutability": "view",
      "type": "function"
    },
    {
      "inputs": [
        {
          "internalType": "uint256",
          "name": "tokenId",
          "type": "uint256"
        }
      ],
      "name": "ownerOf",
      "outputs": [
        {
          "internalType": "address",
          "name": "",
          "type": "address"
        }
      ],
      "stateMutability": "view",
      "type": "function"
    },
    {
      "inputs": [
        {
          "internalType": "bool",
          "name": "_state",
          "type": "bool"
        }
      ],
      "name": "pause",
      "outputs": [],
      "stateMutability": "nonpayable",
      "type": "function"
    },
    {
      "inputs": [],
      "name": "paused",
      "outputs": [
        {
          "internalType": "bool",
          "name": "",
          "type": "bool"
        }
      ],
      "stateMutability": "view",
      "type": "function"
    },
    {
      "inputs": [],
      "name": "renounceOwnership",
      "outputs": [],
      "stateMutability": "nonpayable",
      "type": "function"
    },
    {
      "inputs": [
        {
          "internalType": "address",
          "name": "from",
          "type": "address"
        },
        {
          "internalType": "address",
          "name": "to",
          "type": "address"
        },
        {
          "internalType": "uint256",
          "name": "tokenId",
          "type": "uint256"
        }
      ],
      "name": "safeTransferFrom",
      "outputs": [],
      "stateMutability": "nonpayable",
      "type": "function"
    },
    {
      "inputs": [
        {
          "internalType": "address",
          "name": "from",
          "type": "address"
        },
        {
          "internalType": "address",
          "name": "to",
          "type": "address"
        },
        {
          "internalType": "uint256",
          "name": "tokenId",
          "type": "uint256"
        },
        {
          "internalType": "bytes",
          "name": "_data",
          "type": "bytes"
        }
      ],
      "name": "safeTransferFrom",
      "outputs": [],
      "stateMutability": "nonpayable",
      "type": "function"
    },
    {
      "inputs": [
        {
          "internalType": "address",
          "name": "operator",
          "type": "address"
        },
        {
          "internalType": "bool",
          "name": "approved",
          "type": "bool"
        }
      ],
      "name": "setApprovalForAll",
      "outputs": [],
      "stateMutability": "nonpayable",
      "type": "function"
    },
    {
      "inputs": [
        {
          "internalType": "string",
          "name": "_newBaseExtension",
          "type": "string"
        }
      ],
      "name": "setBaseExtension",
      "outputs": [],
      "stateMutability": "nonpayable",
      "type": "function"
    },
    {
      "inputs": [
        {
          "internalType": "string",
          "name": "_newBaseURI",
          "type": "string"
        }
      ],
      "name": "setBaseURI",
      "outputs": [],
      "stateMutability": "nonpayable",
      "type": "function"
    },
    {
      "inputs": [
        {
          "internalType": "uint256",
          "name": "_newCost",
          "type": "uint256"
        }
      ],
      "name": "setCost",
      "outputs": [],
      "stateMutability": "nonpayable",
      "type": "function"
    },
    {
      "inputs": [
        {
          "internalType": "uint256",
          "name": "_newmaxMintAmount",
          "type": "uint256"
        }
      ],
      "name": "setmaxMintAmount",
      "outputs": [],
      "stateMutability": "nonpayable",
      "type": "function"
    },
    {
      "inputs": [
        {
          "internalType": "bytes4",
          "name": "interfaceId",
          "type": "bytes4"
        }
      ],
      "name": "supportsInterface",
      "outputs": [
        {
          "internalType": "bool",
          "name": "",
          "type": "bool"
        }
      ],
      "stateMutability": "view",
      "type": "function"
    },
    {
      "inputs": [],
      "name": "symbol",
      "outputs": [
        {
          "internalType": "string",
          "name": "",
          "type": "string"
        }
      ],
      "stateMutability": "view",
      "type": "function"
    },
    {
      "inputs": [
        {
          "internalType": "uint256",
          "name": "index",
          "type": "uint256"
        }
      ],
      "name": "tokenByIndex",
      "outputs": [
        {
          "internalType": "uint256",
          "name": "",
          "type": "uint256"
        }
      ],
      "stateMutability": "view",
      "type": "function"
    },
    {
      "inputs": [
        {
          "internalType": "address",
          "name": "owner",
          "type": "address"
        },
        {
          "internalType": "uint256",
          "name": "index",
          "type": "uint256"
        }
      ],
      "name": "tokenOfOwnerByIndex",
      "outputs": [
        {
          "internalType": "uint256",
          "name": "",
          "type": "uint256"
        }
      ],
      "stateMutability": "view",
      "type": "function"
    },
    {
      "inputs": [
        {
          "internalType": "uint256",
          "name": "tokenId",
          "type": "uint256"
        }
      ],
      "name": "tokenURI",
      "outputs": [
        {
          "internalType": "string",
          "name": "",
          "type": "string"
        }
      ],
      "stateMutability": "view",
      "type": "function"
    },
    {
      "inputs": [],
      "name": "totalSupply",
      "outputs": [
        {
          "internalType": "uint256",
          "name": "",
          "type": "uint256"
        }
      ],
      "stateMutability": "view",
      "type": "function"
    },
    {
      "inputs": [
        {
          "internalType": "address",
          "name": "from",
          "type": "address"
        },
        {
          "internalType": "address",
          "name": "to",
          "type": "address"
        },
        {
          "internalType": "uint256",
          "name": "tokenId",
          "type": "uint256"
        }
      ],
      "name": "transferFrom",
      "outputs": [],
      "stateMutability": "nonpayable",
      "type": "function"
    },
    {
      "inputs": [
        {
          "internalType": "address",
          "name": "newOwner",
          "type": "address"
        }
      ],
      "name": "transferOwnership",
      "outputs": [],
      "stateMutability": "nonpayable",
      "type": "function"
    },
    {
      "inputs": [
        {
          "internalType": "address",
          "name": "_owner",
          "type": "address"
        }
      ],
      "name": "walletOfOwner",
      "outputs": [
        {
          "internalType": "uint256[]",
          "name": "",
          "type": "uint256[]"
        }
      ],
      "stateMutability": "view",
      "type": "function"
    },
    {
      "inputs": [],
      "name": "withdraw",
      "outputs": [],
      "stateMutability": "payable",
      "type": "function"
    }
  ],
  "transactionHash": "0x3c3bd40ca4c0be99978a31b293fd2ad099e071221790f72cc454953d1499291d",
  "args": [
    "Test",
    "TST",
    "https://raw.githubusercontent.com/Node-Fi/NodeLaunch/main/metadata/",
    "0x4DCd0efDbCc9EB429683FEea07B4131DC3290C45",
    100
  ],
  "numDeployments": 1,
  "solcInputHash": "a7f6bd9d0e465eba5badbc9b61ce059f",
  "bytecode": "0x60c06040526005608081905264173539b7b760d91b60a09081526200002891600c919062000673565b506000600d55612710600e556064600f556010805460ff191690553480156200005057600080fd5b50604051620030d8380380620030d88339810160408190526200007391620007cc565b8451859085906200008c90600090602085019062000673565b508051620000a290600190602084019062000673565b505050620000bf620000b9620000e160201b60201c565b620000e5565b620000ca8362000137565b620000d682826200019f565b505050505062000a4f565b3390565b600a80546001600160a01b038381166001600160a01b0319831681179093556040519116919082907f8be0079c531659141344cd1fd0a4f28419497f9722a3daafe3b4186f6b6457e090600090a35050565b62000141620000e1565b6001600160a01b0316620001546200023c565b6001600160a01b031614620001865760405162461bcd60e51b81526004016200017d906200093c565b60405180910390fd5b80516200019b90600b90602084019062000673565b5050565b6000620001ab6200024b565b60105490915060ff1615620001bf57600080fd5b620001c96200023c565b6001600160a01b0316336001600160a01b031614620001ff5781600d54620001f291906200098c565b341015620001ff57600080fd5b60015b828111620002365762000221846200021b838562000971565b62000251565b806200022d8162000a05565b91505062000202565b50505050565b600a546001600160a01b031690565b60085490565b6001600160a01b0382166200027a5760405162461bcd60e51b81526004016200017d9062000907565b620002858162000346565b15620002a55760405162461bcd60e51b81526004016200017d9062000886565b620002b36000838362000363565b6001600160a01b0382166000908152600360205260408120805460019290620002de90849062000971565b909155505060008181526002602052604080822080546001600160a01b0319166001600160a01b03861690811790915590518392907fddf252ad1be2c89b69c2b068fc378daa952ba7f163c4a11628f55a4df523b3ef908290a46200019b6000838362000407565b6000908152600260205260409020546001600160a01b0316151590565b6200037b8383836200040760201b620007f21760201c565b6001600160a01b0383166200039b5762000395816200040c565b620003c1565b816001600160a01b0316836001600160a01b031614620003c157620003c1838262000450565b6001600160a01b038216620003e157620003db81620004fd565b62000407565b826001600160a01b0316826001600160a01b0316146200040757620004078282620005db565b505050565b600880546000838152600960205260408120829055600182018355919091527ff3f7a9fe364faab93b216da50a3214154f22a0a2b415b23a84c8169e8b636ee30155565b600060016200046a846200062c60201b62000c1e1760201c565b620004769190620009ae565b600083815260076020526040902054909150808214620004ca576001600160a01b03841660009081526006602090815260408083208584528252808320548484528184208190558352600790915290208190555b5060009182526007602090815260408084208490556001600160a01b039094168352600681528383209183525290812055565b6008546000906200051190600190620009ae565b600083815260096020526040812054600880549394509092849081106200054857634e487b7160e01b600052603260045260246000fd5b9060005260206000200154905080600883815481106200057857634e487b7160e01b600052603260045260246000fd5b6000918252602080832090910192909255828152600990915260408082208490558582528120556008805480620005bf57634e487b7160e01b600052603160045260246000fd5b6001900381819060005260206000200160009055905550505050565b6000620005f3836200062c60201b62000c1e1760201c565b6001600160a01b039093166000908152600660209081526040808320868452825280832085905593825260079052919091209190915550565b60006001600160a01b038216620006575760405162461bcd60e51b81526004016200017d90620008bd565b506001600160a01b031660009081526003602052604090205490565b8280546200068190620009c8565b90600052602060002090601f016020900481019282620006a55760008555620006f0565b82601f10620006c057805160ff1916838001178555620006f0565b82800160010185558215620006f0579182015b82811115620006f0578251825591602001919060010190620006d3565b50620006fe92915062000702565b5090565b5b80821115620006fe576000815560010162000703565b600082601f8301126200072a578081fd5b81516001600160401b038082111562000747576200074762000a39565b604051601f8301601f19908116603f0116810190828211818310171562000772576200077262000a39565b816040528381526020925086838588010111156200078e578485fd5b8491505b83821015620007b1578582018301518183018401529082019062000792565b83821115620007c257848385830101525b9695505050505050565b600080600080600060a08688031215620007e4578081fd5b85516001600160401b0380821115620007fb578283fd5b6200080989838a0162000719565b965060208801519150808211156200081f578283fd5b6200082d89838a0162000719565b9550604088015191508082111562000843578283fd5b50620008528882890162000719565b606088015190945090506001600160a01b038116811462000871578182fd5b80925050608086015190509295509295909350565b6020808252601c908201527f4552433732313a20746f6b656e20616c7265616479206d696e74656400000000604082015260600190565b6020808252602a908201527f4552433732313a2062616c616e636520717565727920666f7220746865207a65604082015269726f206164647265737360b01b606082015260800190565b6020808252818101527f4552433732313a206d696e7420746f20746865207a65726f2061646472657373604082015260600190565b6020808252818101527f4f776e61626c653a2063616c6c6572206973206e6f7420746865206f776e6572604082015260600190565b6000821982111562000987576200098762000a23565b500190565b6000816000190483118215151615620009a957620009a962000a23565b500290565b600082821015620009c357620009c362000a23565b500390565b600281046001821680620009dd57607f821691505b60208210811415620009ff57634e487b7160e01b600052602260045260246000fd5b50919050565b600060001982141562000a1c5762000a1c62000a23565b5060010190565b634e487b7160e01b600052601160045260246000fd5b634e487b7160e01b600052604160045260246000fd5b6126798062000a5f6000396000f3fe6080604052600436106101fe5760003560e01c806355f804b31161011d57806395d89b41116100b0578063c87b56dd1161007f578063da3ef23f11610064578063da3ef23f14610571578063e985e9c514610591578063f2fde38b146105b1576101fe565b8063c87b56dd1461053c578063d5abeb011461055c576101fe565b806395d89b41146104d2578063a22cb465146104e7578063b88d4fde14610507578063c668286214610527576101fe565b806370a08231116100ec57806370a0823114610468578063715018a6146104885780637f00c7a61461049d5780638da5cb5b146104bd576101fe565b806355f804b3146103fe5780635c975abb1461041e5780636352211e146104335780636c0360eb14610453576101fe565b806323b872dd1161019557806342842e0e1161016457806342842e0e14610371578063438b63001461039157806344a0d68a146103be5780634f6ccce7146103de576101fe565b806323b872dd146103165780632f745c59146103365780633ccfd60b1461035657806340c10f191461035e576101fe565b8063095ea7b3116101d1578063095ea7b3146102aa57806313faede6146102ca57806318160ddd146102ec578063239c70ae14610301576101fe565b806301ffc9a71461020357806302329a291461023957806306fdde031461025b578063081812fc1461027d575b600080fd5b34801561020f57600080fd5b5061022361021e366004611c66565b6105d1565b6040516102309190611e7e565b60405180910390f35b34801561024557600080fd5b50610259610254366004611c4c565b61062f565b005b34801561026757600080fd5b5061027061068a565b6040516102309190611e89565b34801561028957600080fd5b5061029d610298366004611ce4565b61071c565b6040516102309190611dea565b3480156102b657600080fd5b506102596102c5366004611c23565b61075f565b3480156102d657600080fd5b506102df6107f7565b604051610230919061248a565b3480156102f857600080fd5b506102df6107fd565b34801561030d57600080fd5b506102df610803565b34801561032257600080fd5b50610259610331366004611b46565b610809565b34801561034257600080fd5b506102df610351366004611c23565b610841565b610259610893565b61025961036c366004611c23565b6108f8565b34801561037d57600080fd5b5061025961038c366004611b46565b610984565b34801561039d57600080fd5b506103b16103ac366004611afa565b61099f565b6040516102309190611e3a565b3480156103ca57600080fd5b506102596103d9366004611ce4565b610a5d565b3480156103ea57600080fd5b506102df6103f9366004611ce4565b610aa1565b34801561040a57600080fd5b50610259610419366004611c9e565b610afc565b34801561042a57600080fd5b50610223610b52565b34801561043f57600080fd5b5061029d61044e366004611ce4565b610b5b565b34801561045f57600080fd5b50610270610b90565b34801561047457600080fd5b506102df610483366004611afa565b610c1e565b34801561049457600080fd5b50610259610c62565b3480156104a957600080fd5b506102596104b8366004611ce4565b610cab565b3480156104c957600080fd5b5061029d610cef565b3480156104de57600080fd5b50610270610cfe565b3480156104f357600080fd5b50610259610502366004611bfa565b610d0d565b34801561051357600080fd5b50610259610522366004611b81565b610d1f565b34801561053357600080fd5b50610270610d58565b34801561054857600080fd5b50610270610557366004611ce4565b610d65565b34801561056857600080fd5b506102df610deb565b34801561057d57600080fd5b5061025961058c366004611c9e565b610df1565b34801561059d57600080fd5b506102236105ac366004611b14565b610e43565b3480156105bd57600080fd5b506102596105cc366004611afa565b610e71565b60007fffffffff0000000000000000000000000000000000000000000000000000000082167f780e9d63000000000000000000000000000000000000000000000000000000001480610627575061062782610ee2565b90505b919050565b610637610f84565b6001600160a01b0316610648610cef565b6001600160a01b0316146106775760405162461bcd60e51b815260040161066e906122e1565b60405180910390fd5b6010805460ff1916911515919091179055565b6060600080546106999061254b565b80601f01602080910402602001604051908101604052809291908181526020018280546106c59061254b565b80156107125780601f106106e757610100808354040283529160200191610712565b820191906000526020600020905b8154815290600101906020018083116106f557829003601f168201915b5050505050905090565b600061072782610f88565b6107435760405162461bcd60e51b815260040161066e90612284565b506000908152600460205260409020546001600160a01b031690565b600061076a82610b5b565b9050806001600160a01b0316836001600160a01b0316141561079e5760405162461bcd60e51b815260040161066e90612373565b806001600160a01b03166107b0610f84565b6001600160a01b031614806107cc57506107cc816105ac610f84565b6107e85760405162461bcd60e51b815260040161066e90612138565b6107f28383610fa5565b505050565b600d5481565b60085490565b600f5481565b61081a610814610f84565b8261102b565b6108365760405162461bcd60e51b815260040161066e906123d0565b6107f28383836110b0565b600061084c83610c1e565b821061086a5760405162461bcd60e51b815260040161066e90611e9c565b506001600160a01b03919091166000908152600660209081526040808320938352929052205490565b61089b610f84565b6001600160a01b03166108ac610cef565b6001600160a01b0316146108d25760405162461bcd60e51b815260040161066e906122e1565b60405133904780156108fc02916000818181858888f193505050506108f657600080fd5b565b60006109026107fd565b60105490915060ff161561091557600080fd5b61091d610cef565b6001600160a01b0316336001600160a01b03161461094f5781600d5461094391906124cb565b34101561094f57600080fd5b60015b82811161097e5761096c84610967838561249f565b6111fb565b8061097681612586565b915050610952565b50505050565b6107f283838360405180602001604052806000815250610d1f565b606060006109ac83610c1e565b905060008167ffffffffffffffff8111156109d757634e487b7160e01b600052604160045260246000fd5b604051908082528060200260200182016040528015610a00578160200160208202803683370190505b50905060005b82811015610a5557610a188582610841565b828281518110610a3857634e487b7160e01b600052603260045260246000fd5b602090810291909101015280610a4d81612586565b915050610a06565b509392505050565b610a65610f84565b6001600160a01b0316610a76610cef565b6001600160a01b031614610a9c5760405162461bcd60e51b815260040161066e906122e1565b600d55565b6000610aab6107fd565b8210610ac95760405162461bcd60e51b815260040161066e9061242d565b60088281548110610aea57634e487b7160e01b600052603260045260246000fd5b90600052602060002001549050919050565b610b04610f84565b6001600160a01b0316610b15610cef565b6001600160a01b031614610b3b5760405162461bcd60e51b815260040161066e906122e1565b8051610b4e90600b9060208401906119c4565b5050565b60105460ff1681565b6000818152600260205260408120546001600160a01b0316806106275760405162461bcd60e51b815260040161066e906121f2565b600b8054610b9d9061254b565b80601f0160208091040260200160405190810160405280929190818152602001828054610bc99061254b565b8015610c165780601f10610beb57610100808354040283529160200191610c16565b820191906000526020600020905b815481529060010190602001808311610bf957829003601f168201915b505050505081565b60006001600160a01b038216610c465760405162461bcd60e51b815260040161066e90612195565b506001600160a01b031660009081526003602052604090205490565b610c6a610f84565b6001600160a01b0316610c7b610cef565b6001600160a01b031614610ca15760405162461bcd60e51b815260040161066e906122e1565b6108f660006112fa565b610cb3610f84565b6001600160a01b0316610cc4610cef565b6001600160a01b031614610cea5760405162461bcd60e51b815260040161066e906122e1565b600f55565b600a546001600160a01b031690565b6060600180546106999061254b565b610b4e610d18610f84565b8383611364565b610d30610d2a610f84565b8361102b565b610d4c5760405162461bcd60e51b815260040161066e906123d0565b61097e84848484611407565b600c8054610b9d9061254b565b6060610d7082610f88565b610d8c5760405162461bcd60e51b815260040161066e90612316565b6000610d9661143a565b90506000815111610db65760405180602001604052806000815250610de4565b80610dc084611449565b600c604051602001610dd493929190611d28565b6040516020818303038152906040525b9392505050565b600e5481565b610df9610f84565b6001600160a01b0316610e0a610cef565b6001600160a01b031614610e305760405162461bcd60e51b815260040161066e906122e1565b8051610b4e90600c9060208401906119c4565b6001600160a01b03918216600090815260056020908152604080832093909416825291909152205460ff1690565b610e79610f84565b6001600160a01b0316610e8a610cef565b6001600160a01b031614610eb05760405162461bcd60e51b815260040161066e906122e1565b6001600160a01b038116610ed65760405162461bcd60e51b815260040161066e90611f56565b610edf816112fa565b50565b60007fffffffff0000000000000000000000000000000000000000000000000000000082167f80ac58cd000000000000000000000000000000000000000000000000000000001480610f7557507fffffffff0000000000000000000000000000000000000000000000000000000082167f5b5e139f00000000000000000000000000000000000000000000000000000000145b80610627575061062782611598565b3390565b6000908152600260205260409020546001600160a01b0316151590565b600081815260046020526040902080547fffffffffffffffffffffffff0000000000000000000000000000000000000000166001600160a01b0384169081179091558190610ff282610b5b565b6001600160a01b03167f8c5be1e5ebec7d5bd14f71427d1e84f3dd0314c0f7b2291e5b200ac8c7c3b92560405160405180910390a45050565b600061103682610f88565b6110525760405162461bcd60e51b815260040161066e906120db565b600061105d83610b5b565b9050806001600160a01b0316846001600160a01b031614806110985750836001600160a01b031661108d8461071c565b6001600160a01b0316145b806110a857506110a88185610e43565b949350505050565b826001600160a01b03166110c382610b5b565b6001600160a01b0316146110e95760405162461bcd60e51b815260040161066e90611fb3565b6001600160a01b03821661110f5760405162461bcd60e51b815260040161066e90612047565b61111a8383836115e2565b611125600082610fa5565b6001600160a01b038316600090815260036020526040812080546001929061114e908490612508565b90915550506001600160a01b038216600090815260036020526040812080546001929061117c90849061249f565b909155505060008181526002602052604080822080547fffffffffffffffffffffffff0000000000000000000000000000000000000000166001600160a01b0386811691821790925591518493918716917fddf252ad1be2c89b69c2b068fc378daa952ba7f163c4a11628f55a4df523b3ef91a46107f28383836107f2565b6001600160a01b0382166112215760405162461bcd60e51b815260040161066e9061224f565b61122a81610f88565b156112475760405162461bcd60e51b815260040161066e90612010565b611253600083836115e2565b6001600160a01b038216600090815260036020526040812080546001929061127c90849061249f565b909155505060008181526002602052604080822080547fffffffffffffffffffffffff0000000000000000000000000000000000000000166001600160a01b03861690811790915590518392907fddf252ad1be2c89b69c2b068fc378daa952ba7f163c4a11628f55a4df523b3ef908290a4610b4e600083836107f2565b600a80546001600160a01b038381167fffffffffffffffffffffffff0000000000000000000000000000000000000000831681179093556040519116919082907f8be0079c531659141344cd1fd0a4f28419497f9722a3daafe3b4186f6b6457e090600090a35050565b816001600160a01b0316836001600160a01b031614156113965760405162461bcd60e51b815260040161066e906120a4565b6001600160a01b0383811660008181526005602090815260408083209487168084529490915290819020805460ff1916851515179055517f17307eab39ab6107e8899845ad3d59bd9653f200f220920489ca2b5937696c31906113fa908590611e7e565b60405180910390a3505050565b6114128484846110b0565b61141e8484848461166b565b61097e5760405162461bcd60e51b815260040161066e90611ef9565b6060600b80546106999061254b565b60608161148a575060408051808201909152600181527f3000000000000000000000000000000000000000000000000000000000000000602082015261062a565b8160005b81156114b4578061149e81612586565b91506114ad9050600a836124b7565b915061148e565b60008167ffffffffffffffff8111156114dd57634e487b7160e01b600052604160045260246000fd5b6040519080825280601f01601f191660200182016040528015611507576020820181803683370190505b5090505b84156110a85761151c600183612508565b9150611529600a866125bf565b61153490603061249f565b60f81b81838151811061155757634e487b7160e01b600052603260045260246000fd5b60200101907effffffffffffffffffffffffffffffffffffffffffffffffffffffffffffff1916908160001a905350611591600a866124b7565b945061150b565b7fffffffff0000000000000000000000000000000000000000000000000000000081167f01ffc9a70000000000000000000000000000000000000000000000000000000014919050565b6115ed8383836107f2565b6001600160a01b03831661160957611604816117b7565b61162c565b816001600160a01b0316836001600160a01b03161461162c5761162c83826117fb565b6001600160a01b0382166116485761164381611898565b6107f2565b826001600160a01b0316826001600160a01b0316146107f2576107f28282611971565b600061167f846001600160a01b03166119b5565b156117ac57836001600160a01b031663150b7a0261169b610f84565b8786866040518563ffffffff1660e01b81526004016116bd9493929190611dfe565b602060405180830381600087803b1580156116d757600080fd5b505af1925050508015611707575060408051601f3d908101601f1916820190925261170491810190611c82565b60015b611761573d808015611735576040519150601f19603f3d011682016040523d82523d6000602084013e61173a565b606091505b5080516117595760405162461bcd60e51b815260040161066e90611ef9565b805181602001fd5b7fffffffff00000000000000000000000000000000000000000000000000000000167f150b7a02000000000000000000000000000000000000000000000000000000001490506110a8565b506001949350505050565b600880546000838152600960205260408120829055600182018355919091527ff3f7a9fe364faab93b216da50a3214154f22a0a2b415b23a84c8169e8b636ee30155565b6000600161180884610c1e565b6118129190612508565b600083815260076020526040902054909150808214611865576001600160a01b03841660009081526006602090815260408083208584528252808320548484528184208190558352600790915290208190555b5060009182526007602090815260408084208490556001600160a01b039094168352600681528383209183525290812055565b6008546000906118aa90600190612508565b600083815260096020526040812054600880549394509092849081106118e057634e487b7160e01b600052603260045260246000fd5b90600052602060002001549050806008838154811061190f57634e487b7160e01b600052603260045260246000fd5b600091825260208083209091019290925582815260099091526040808220849055858252812055600880548061195557634e487b7160e01b600052603160045260246000fd5b6001900381819060005260206000200160009055905550505050565b600061197c83610c1e565b6001600160a01b039093166000908152600660209081526040808320868452825280832085905593825260079052919091209190915550565b6001600160a01b03163b151590565b8280546119d09061254b565b90600052602060002090601f0160209004810192826119f25760008555611a38565b82601f10611a0b57805160ff1916838001178555611a38565b82800160010185558215611a38579182015b82811115611a38578251825591602001919060010190611a1d565b50611a44929150611a48565b5090565b5b80821115611a445760008155600101611a49565b600067ffffffffffffffff80841115611a7857611a786125ff565b604051601f8501601f19908116603f01168101908282118183101715611aa057611aa06125ff565b81604052809350858152868686011115611ab957600080fd5b858560208301376000602087830101525050509392505050565b80356001600160a01b038116811461062a57600080fd5b8035801515811461062a57600080fd5b600060208284031215611b0b578081fd5b610de482611ad3565b60008060408385031215611b26578081fd5b611b2f83611ad3565b9150611b3d60208401611ad3565b90509250929050565b600080600060608486031215611b5a578081fd5b611b6384611ad3565b9250611b7160208501611ad3565b9150604084013590509250925092565b60008060008060808587031215611b96578081fd5b611b9f85611ad3565b9350611bad60208601611ad3565b925060408501359150606085013567ffffffffffffffff811115611bcf578182fd5b8501601f81018713611bdf578182fd5b611bee87823560208401611a5d565b91505092959194509250565b60008060408385031215611c0c578182fd5b611c1583611ad3565b9150611b3d60208401611aea565b60008060408385031215611c35578182fd5b611c3e83611ad3565b946020939093013593505050565b600060208284031215611c5d578081fd5b610de482611aea565b600060208284031215611c77578081fd5b8135610de481612615565b600060208284031215611c93578081fd5b8151610de481612615565b600060208284031215611caf578081fd5b813567ffffffffffffffff811115611cc5578182fd5b8201601f81018413611cd5578182fd5b6110a884823560208401611a5d565b600060208284031215611cf5578081fd5b5035919050565b60008151808452611d1481602086016020860161251f565b601f01601f19169290920160200192915050565b600084516020611d3b8285838a0161251f565b855191840191611d4e8184848a0161251f565b8554920191839060028104600180831680611d6a57607f831692505b858310811415611d8857634e487b7160e01b88526022600452602488fd5b808015611d9c5760018114611dad57611dd9565b60ff19851688528388019550611dd9565b611db68b612493565b895b85811015611dd15781548a820152908401908801611db8565b505083880195505b50939b9a5050505050505050505050565b6001600160a01b0391909116815260200190565b60006001600160a01b03808716835280861660208401525083604083015260806060830152611e306080830184611cfc565b9695505050505050565b6020808252825182820181905260009190848201906040850190845b81811015611e7257835183529284019291840191600101611e56565b50909695505050505050565b901515815260200190565b600060208252610de46020830184611cfc565b6020808252602b908201527f455243373231456e756d657261626c653a206f776e657220696e646578206f7560408201527f74206f6620626f756e6473000000000000000000000000000000000000000000606082015260800190565b60208082526032908201527f4552433732313a207472616e7366657220746f206e6f6e20455243373231526560408201527f63656976657220696d706c656d656e7465720000000000000000000000000000606082015260800190565b60208082526026908201527f4f776e61626c653a206e6577206f776e657220697320746865207a65726f206160408201527f6464726573730000000000000000000000000000000000000000000000000000606082015260800190565b60208082526025908201527f4552433732313a207472616e736665722066726f6d20696e636f72726563742060408201527f6f776e6572000000000000000000000000000000000000000000000000000000606082015260800190565b6020808252601c908201527f4552433732313a20746f6b656e20616c7265616479206d696e74656400000000604082015260600190565b60208082526024908201527f4552433732313a207472616e7366657220746f20746865207a65726f2061646460408201527f7265737300000000000000000000000000000000000000000000000000000000606082015260800190565b60208082526019908201527f4552433732313a20617070726f766520746f2063616c6c657200000000000000604082015260600190565b6020808252602c908201527f4552433732313a206f70657261746f7220717565727920666f72206e6f6e657860408201527f697374656e7420746f6b656e0000000000000000000000000000000000000000606082015260800190565b60208082526038908201527f4552433732313a20617070726f76652063616c6c6572206973206e6f74206f7760408201527f6e6572206e6f7220617070726f76656420666f7220616c6c0000000000000000606082015260800190565b6020808252602a908201527f4552433732313a2062616c616e636520717565727920666f7220746865207a6560408201527f726f206164647265737300000000000000000000000000000000000000000000606082015260800190565b60208082526029908201527f4552433732313a206f776e657220717565727920666f72206e6f6e657869737460408201527f656e7420746f6b656e0000000000000000000000000000000000000000000000606082015260800190565b6020808252818101527f4552433732313a206d696e7420746f20746865207a65726f2061646472657373604082015260600190565b6020808252602c908201527f4552433732313a20617070726f76656420717565727920666f72206e6f6e657860408201527f697374656e7420746f6b656e0000000000000000000000000000000000000000606082015260800190565b6020808252818101527f4f776e61626c653a2063616c6c6572206973206e6f7420746865206f776e6572604082015260600190565b6020808252602f908201527f4552433732314d657461646174613a2055524920717565727920666f72206e6f60408201527f6e6578697374656e7420746f6b656e0000000000000000000000000000000000606082015260800190565b60208082526021908201527f4552433732313a20617070726f76616c20746f2063757272656e74206f776e6560408201527f7200000000000000000000000000000000000000000000000000000000000000606082015260800190565b60208082526031908201527f4552433732313a207472616e736665722063616c6c6572206973206e6f74206f60408201527f776e6572206e6f7220617070726f766564000000000000000000000000000000606082015260800190565b6020808252602c908201527f455243373231456e756d657261626c653a20676c6f62616c20696e646578206f60408201527f7574206f6620626f756e64730000000000000000000000000000000000000000606082015260800190565b90815260200190565b60009081526020902090565b600082198211156124b2576124b26125d3565b500190565b6000826124c6576124c66125e9565b500490565b6000817fffffffffffffffffffffffffffffffffffffffffffffffffffffffffffffffff0483118215151615612503576125036125d3565b500290565b60008282101561251a5761251a6125d3565b500390565b60005b8381101561253a578181015183820152602001612522565b8381111561097e5750506000910152565b60028104600182168061255f57607f821691505b6020821081141561258057634e487b7160e01b600052602260045260246000fd5b50919050565b60007fffffffffffffffffffffffffffffffffffffffffffffffffffffffffffffffff8214156125b8576125b86125d3565b5060010190565b6000826125ce576125ce6125e9565b500690565b634e487b7160e01b600052601160045260246000fd5b634e487b7160e01b600052601260045260246000fd5b634e487b7160e01b600052604160045260246000fd5b7fffffffff0000000000000000000000000000000000000000000000000000000081168114610edf57600080fdfea2646970667358221220798a020fdbfb29a4cd35444a6c4696f48419a91e314d007ea1eb0aa4c2dfcd9d64736f6c63430008010033",
  "devdoc": {
    "kind": "dev",
    "methods": {
      "approve(address,uint256)": {
        "details": "See {IERC721-approve}."
      },
      "balanceOf(address)": {
        "details": "See {IERC721-balanceOf}."
      },
      "getApproved(uint256)": {
        "details": "See {IERC721-getApproved}."
      },
      "isApprovedForAll(address,address)": {
        "details": "See {IERC721-isApprovedForAll}."
      },
      "name()": {
        "details": "See {IERC721Metadata-name}."
      },
      "owner()": {
        "details": "Returns the address of the current owner."
      },
      "ownerOf(uint256)": {
        "details": "See {IERC721-ownerOf}."
      },
      "renounceOwnership()": {
        "details": "Leaves the contract without owner. It will not be possible to call `onlyOwner` functions anymore. Can only be called by the current owner. NOTE: Renouncing ownership will leave the contract without an owner, thereby removing any functionality that is only available to the owner."
      },
      "safeTransferFrom(address,address,uint256)": {
        "details": "See {IERC721-safeTransferFrom}."
      },
      "safeTransferFrom(address,address,uint256,bytes)": {
        "details": "See {IERC721-safeTransferFrom}."
      },
      "setApprovalForAll(address,bool)": {
        "details": "See {IERC721-setApprovalForAll}."
      },
      "supportsInterface(bytes4)": {
        "details": "See {IERC165-supportsInterface}."
      },
      "symbol()": {
        "details": "See {IERC721Metadata-symbol}."
      },
      "tokenByIndex(uint256)": {
        "details": "See {IERC721Enumerable-tokenByIndex}."
      },
      "tokenOfOwnerByIndex(address,uint256)": {
        "details": "See {IERC721Enumerable-tokenOfOwnerByIndex}."
      },
      "tokenURI(uint256)": {
        "details": "See {IERC721Metadata-tokenURI}."
      },
      "totalSupply()": {
        "details": "See {IERC721Enumerable-totalSupply}."
      },
      "transferFrom(address,address,uint256)": {
        "details": "See {IERC721-transferFrom}."
      },
      "transferOwnership(address)": {
        "details": "Transfers ownership of the contract to a new account (`newOwner`). Can only be called by the current owner."
      }
    },
    "version": 1
  },
  "userdoc": {
    "kind": "user",
    "methods": {},
    "version": 1
  },
  "storageLayout": {
    "storage": [
      {
        "astId": 130,
        "contract": "contracts/TestNFT.sol:TestNFT",
        "label": "_name",
        "offset": 0,
        "slot": "0",
        "type": "t_string_storage"
      },
      {
        "astId": 132,
        "contract": "contracts/TestNFT.sol:TestNFT",
        "label": "_symbol",
        "offset": 0,
        "slot": "1",
        "type": "t_string_storage"
      },
      {
        "astId": 136,
        "contract": "contracts/TestNFT.sol:TestNFT",
        "label": "_owners",
        "offset": 0,
        "slot": "2",
        "type": "t_mapping(t_uint256,t_address)"
      },
      {
        "astId": 140,
        "contract": "contracts/TestNFT.sol:TestNFT",
        "label": "_balances",
        "offset": 0,
        "slot": "3",
        "type": "t_mapping(t_address,t_uint256)"
      },
      {
        "astId": 144,
        "contract": "contracts/TestNFT.sol:TestNFT",
        "label": "_tokenApprovals",
        "offset": 0,
        "slot": "4",
        "type": "t_mapping(t_uint256,t_address)"
      },
      {
        "astId": 150,
        "contract": "contracts/TestNFT.sol:TestNFT",
        "label": "_operatorApprovals",
        "offset": 0,
        "slot": "5",
        "type": "t_mapping(t_address,t_mapping(t_address,t_bool))"
      },
      {
        "astId": 1119,
        "contract": "contracts/TestNFT.sol:TestNFT",
        "label": "_ownedTokens",
        "offset": 0,
        "slot": "6",
        "type": "t_mapping(t_address,t_mapping(t_uint256,t_uint256))"
      },
      {
        "astId": 1123,
        "contract": "contracts/TestNFT.sol:TestNFT",
        "label": "_ownedTokensIndex",
        "offset": 0,
        "slot": "7",
        "type": "t_mapping(t_uint256,t_uint256)"
      },
      {
        "astId": 1126,
        "contract": "contracts/TestNFT.sol:TestNFT",
        "label": "_allTokens",
        "offset": 0,
        "slot": "8",
        "type": "t_array(t_uint256)dyn_storage"
      },
      {
        "astId": 1130,
        "contract": "contracts/TestNFT.sol:TestNFT",
        "label": "_allTokensIndex",
        "offset": 0,
        "slot": "9",
        "type": "t_mapping(t_uint256,t_uint256)"
      },
      {
        "astId": 7,
        "contract": "contracts/TestNFT.sol:TestNFT",
        "label": "_owner",
        "offset": 0,
        "slot": "10",
        "type": "t_address"
      },
      {
        "astId": 2375,
        "contract": "contracts/TestNFT.sol:TestNFT",
        "label": "baseURI",
        "offset": 0,
        "slot": "11",
        "type": "t_string_storage"
      },
      {
        "astId": 2378,
        "contract": "contracts/TestNFT.sol:TestNFT",
        "label": "baseExtension",
        "offset": 0,
        "slot": "12",
        "type": "t_string_storage"
      },
      {
        "astId": 2381,
        "contract": "contracts/TestNFT.sol:TestNFT",
        "label": "cost",
        "offset": 0,
        "slot": "13",
        "type": "t_uint256"
      },
      {
        "astId": 2384,
        "contract": "contracts/TestNFT.sol:TestNFT",
        "label": "maxSupply",
        "offset": 0,
        "slot": "14",
        "type": "t_uint256"
      },
      {
        "astId": 2387,
        "contract": "contracts/TestNFT.sol:TestNFT",
        "label": "maxMintAmount",
        "offset": 0,
        "slot": "15",
        "type": "t_uint256"
      },
      {
        "astId": 2390,
        "contract": "contracts/TestNFT.sol:TestNFT",
        "label": "paused",
        "offset": 0,
        "slot": "16",
        "type": "t_bool"
      }
    ],
    "types": {
      "t_address": {
        "encoding": "inplace",
        "label": "address",
        "numberOfBytes": "20"
      },
      "t_array(t_uint256)dyn_storage": {
        "base": "t_uint256",
        "encoding": "dynamic_array",
        "label": "uint256[]",
        "numberOfBytes": "32"
      },
      "t_bool": {
        "encoding": "inplace",
        "label": "bool",
        "numberOfBytes": "1"
      },
      "t_mapping(t_address,t_bool)": {
        "encoding": "mapping",
        "key": "t_address",
        "label": "mapping(address => bool)",
        "numberOfBytes": "32",
        "value": "t_bool"
      },
      "t_mapping(t_address,t_mapping(t_address,t_bool))": {
        "encoding": "mapping",
        "key": "t_address",
        "label": "mapping(address => mapping(address => bool))",
        "numberOfBytes": "32",
        "value": "t_mapping(t_address,t_bool)"
      },
      "t_mapping(t_address,t_mapping(t_uint256,t_uint256))": {
        "encoding": "mapping",
        "key": "t_address",
        "label": "mapping(address => mapping(uint256 => uint256))",
        "numberOfBytes": "32",
        "value": "t_mapping(t_uint256,t_uint256)"
      },
      "t_mapping(t_address,t_uint256)": {
        "encoding": "mapping",
        "key": "t_address",
        "label": "mapping(address => uint256)",
        "numberOfBytes": "32",
        "value": "t_uint256"
      },
      "t_mapping(t_uint256,t_address)": {
        "encoding": "mapping",
        "key": "t_uint256",
        "label": "mapping(uint256 => address)",
        "numberOfBytes": "32",
        "value": "t_address"
      },
      "t_mapping(t_uint256,t_uint256)": {
        "encoding": "mapping",
        "key": "t_uint256",
        "label": "mapping(uint256 => uint256)",
        "numberOfBytes": "32",
        "value": "t_uint256"
      },
      "t_string_storage": {
        "encoding": "bytes",
        "label": "string",
        "numberOfBytes": "32"
      },
      "t_uint256": {
        "encoding": "inplace",
        "label": "uint256",
        "numberOfBytes": "32"
      }
    }
  }
}